{"abi":[{"type":"constructor","inputs":[{"name":"_roflAppId","type":"bytes21","internalType":"bytes21"}],"stateMutability":"nonpayable"},{"type":"function","name":"getAuthorizedMessages","inputs":[],"outputs":[{"name":"","type":"tuple[]","internalType":"struct Message[]","components":[{"name":"value","type":"uint128","internalType":"uint128"},{"name":"block","type":"uint256","internalType":"uint256"},{"name":"sender","type":"address","internalType":"address"},{"name":"isAuthorized","type":"bool","internalType":"bool"}]}],"stateMutability":"view"},{"type":"function","name":"getLastMessage","inputs":[],"outputs":[{"name":"","type":"tuple","internalType":"struct Message","components":[{"name":"value","type":"uint128","internalType":"uint128"},{"name":"block","type":"uint256","internalType":"uint256"},{"name":"sender","type":"address","internalType":"address"},{"name":"isAuthorized","type":"bool","internalType":"bool"}]}],"stateMutability":"view"},{"type":"function","name":"getMessages","inputs":[],"outputs":[{"name":"","type":"tuple[]","internalType":"struct Message[]","components":[{"name":"value","type":"uint128","internalType":"uint128"},{"name":"block","type":"uint256","internalType":"uint256"},{"name":"sender","type":"address","internalType":"address"},{"name":"isAuthorized","type":"bool","internalType":"bool"}]}],"stateMutability":"view"},{"type":"function","name":"getMessagesBySender","inputs":[{"name":"_sender","type":"address","internalType":"address"}],"outputs":[{"name":"","type":"tuple[]","internalType":"struct Message[]","components":[{"name":"value","type":"uint128","internalType":"uint128"},{"name":"block","type":"uint256","internalType":"uint256"},{"name":"sender","type":"address","internalType":"address"},{"name":"isAuthorized","type":"bool","internalType":"bool"}]}],"stateMutability":"view"},{"type":"function","name":"messages","inputs":[{"name":"","type":"uint256","internalType":"uint256"}],"outputs":[{"name":"value","type":"uint128","internalType":"uint128"},{"name":"block","type":"uint256","internalType":"uint256"},{"name":"sender","type":"address","internalType":"address"},{"name":"isAuthorized","type":"bool","internalType":"bool"}],"stateMutability":"view"},{"type":"function","name":"numberOfAuthorizedMessages","inputs":[],"outputs":[{"name":"","type":"uint256","internalType":"uint256"}],"stateMutability":"view"},{"type":"function","name":"numberOfMessages","inputs":[],"outputs":[{"name":"","type":"uint256","internalType":"uint256"}],"stateMutability":"view"},{"type":"function","name":"roflAppId","inputs":[],"outputs":[{"name":"","type":"bytes21","internalType":"bytes21"}],"stateMutability":"view"},{"type":"function","name":"submitMessage","inputs":[{"name":"_value","type":"uint128","internalType":"uint128"}],"outputs":[],"stateMutability":"nonpayable"}],"bytecode":{"object":"0x6080604052348015600e575f5ffd5b5060405161119b38038061119b8339818101604052810190602e919060b4565b805f5f6101000a81548174ffffffffffffffffffffffffffffffffffffffffff021916908360581c02179055505060da565b5f5ffd5b5f7fffffffffffffffffffffffffffffffffffffffffff000000000000000000000082169050919050565b6096816064565b8114609f575f5ffd5b50565b5f8151905060ae81608f565b92915050565b5f6020828403121560c65760c56060565b5b5f60d18482850160a2565b91505092915050565b6110b4806100e75f395ff3fe608060405234801561000f575f5ffd5b5060043610610091575f3560e01c8063531b26c211610064578063531b26c2146101205780635ff6cbf31461013e578063b2ccfb431461015c578063c6e4d9231461017a578063fbda68e2146101aa57610091565b80630d80fefd14610095578063181031b1146100c857806333025c99146100e6578063526bf76e14610102575b5f5ffd5b6100af60048036038101906100aa9190610ba4565b6101c8565b6040516100bf9493929190610c61565b60405180910390f35b6100d061024a565b6040516100dd9190610cde565b60405180910390f35b61010060048036038101906100fb9190610d21565b61025b565b005b61010a610380565b6040516101179190610ddb565b60405180910390f35b6101286104e8565b6040516101359190610df4565b60405180910390f35b6101466104f7565b6040516101539190610f08565b60405180910390f35b610164610615565b6040516101719190610f08565b60405180910390f35b610194600480360381019061018f9190610f52565b610854565b6040516101a19190610f08565b60405180910390f35b6101b2610b13565b6040516101bf9190610df4565b60405180910390f35b600181815481106101d7575f80fd5b905f5260205f2090600302015f91509050805f015f9054906101000a90046fffffffffffffffffffffffffffffffff1690806001015490806002015f9054906101000a900473ffffffffffffffffffffffffffffffffffffffff16908060020160149054906101000a900460ff16905084565b5f5f9054906101000a900460581b81565b60016040518060800160405280836fffffffffffffffffffffffffffffffff1681526020014381526020013373ffffffffffffffffffffffffffffffffffffffff16815260200160011515815250908060018154018082558091505060019003905f5260205f2090600302015f909190919091505f820151815f015f6101000a8154816fffffffffffffffffffffffffffffffff02191690836fffffffffffffffffffffffffffffffff160217905550602082015181600101556040820151816002015f6101000a81548173ffffffffffffffffffffffffffffffffffffffff021916908373ffffffffffffffffffffffffffffffffffffffff16021790555060608201518160020160146101000a81548160ff021916908315150217905550505050565b610388610b1f565b5f600180549050036103e65760405180608001604052805f6fffffffffffffffffffffffffffffffff1681526020015f81526020015f73ffffffffffffffffffffffffffffffffffffffff1681526020015f151581525090506104e5565b60018080805490506103f89190610faa565b8154811061040957610408610fdd565b5b905f5260205f2090600302016040518060800160405290815f82015f9054906101000a90046fffffffffffffffffffffffffffffffff166fffffffffffffffffffffffffffffffff166fffffffffffffffffffffffffffffffff16815260200160018201548152602001600282015f9054906101000a900473ffffffffffffffffffffffffffffffffffffffff1673ffffffffffffffffffffffffffffffffffffffff1673ffffffffffffffffffffffffffffffffffffffff1681526020016002820160149054906101000a900460ff16151515158152505090505b90565b5f6104f1610615565b51905090565b60606001805480602002602001604051908101604052809291908181526020015f905b8282101561060c578382905f5260205f2090600302016040518060800160405290815f82015f9054906101000a90046fffffffffffffffffffffffffffffffff166fffffffffffffffffffffffffffffffff166fffffffffffffffffffffffffffffffff16815260200160018201548152602001600282015f9054906101000a900473ffffffffffffffffffffffffffffffffffffffff1673ffffffffffffffffffffffffffffffffffffffff1673ffffffffffffffffffffffffffffffffffffffff1681526020016002820160149054906101000a900460ff1615151515815250508152602001906001019061051a565b50505050905090565b60605f5f90505f5f90505b60018054905081101561067f576001818154811061064157610640610fdd565b5b905f5260205f20906003020160020160149054906101000a900460ff161561067257818061066e9061100a565b9250505b8080600101915050610620565b505f8167ffffffffffffffff81111561069b5761069a611051565b5b6040519080825280602002602001820160405280156106d457816020015b6106c1610b1f565b8152602001906001900390816106b95790505b5090505f5f90505f5f90505b60018054905081101561084a576001818154811061070157610700610fdd565b5b905f5260205f20906003020160020160149054906101000a900460ff161561083d576001818154811061073757610736610fdd565b5b905f5260205f2090600302016040518060800160405290815f82015f9054906101000a90046fffffffffffffffffffffffffffffffff166fffffffffffffffffffffffffffffffff166fffffffffffffffffffffffffffffffff16815260200160018201548152602001600282015f9054906101000a900473ffffffffffffffffffffffffffffffffffffffff1673ffffffffffffffffffffffffffffffffffffffff1673ffffffffffffffffffffffffffffffffffffffff1681526020016002820160149054906101000a900460ff16151515158152505083838151811061082357610822610fdd565b5b602002602001018190525081806108399061100a565b9250505b80806001019150506106e0565b5081935050505090565b60605f5f90505f5f90505b6001805490508110156108fd578373ffffffffffffffffffffffffffffffffffffffff166001828154811061089757610896610fdd565b5b905f5260205f2090600302016002015f9054906101000a900473ffffffffffffffffffffffffffffffffffffffff1673ffffffffffffffffffffffffffffffffffffffff16036108f05781806108ec9061100a565b9250505b808060010191505061085f565b505f8167ffffffffffffffff81111561091957610918611051565b5b60405190808252806020026020018201604052801561095257816020015b61093f610b1f565b8152602001906001900390816109375790505b5090505f5f90505f5f90505b600180549050811015610b07578573ffffffffffffffffffffffffffffffffffffffff166001828154811061099657610995610fdd565b5b905f5260205f2090600302016002015f9054906101000a900473ffffffffffffffffffffffffffffffffffffffff1673ffffffffffffffffffffffffffffffffffffffff1603610afa57600181815481106109f4576109f3610fdd565b5b905f5260205f2090600302016040518060800160405290815f82015f9054906101000a90046fffffffffffffffffffffffffffffffff166fffffffffffffffffffffffffffffffff166fffffffffffffffffffffffffffffffff16815260200160018201548152602001600282015f9054906101000a900473ffffffffffffffffffffffffffffffffffffffff1673ffffffffffffffffffffffffffffffffffffffff1673ffffffffffffffffffffffffffffffffffffffff1681526020016002820160149054906101000a900460ff161515151581525050838381518110610ae057610adf610fdd565b5b60200260200101819052508180610af69061100a565b9250505b808060010191505061095e565b50819350505050919050565b5f600180549050905090565b60405180608001604052805f6fffffffffffffffffffffffffffffffff1681526020015f81526020015f73ffffffffffffffffffffffffffffffffffffffff1681526020015f151581525090565b5f5ffd5b5f819050919050565b610b8381610b71565b8114610b8d575f5ffd5b50565b5f81359050610b9e81610b7a565b92915050565b5f60208284031215610bb957610bb8610b6d565b5b5f610bc684828501610b90565b91505092915050565b5f6fffffffffffffffffffffffffffffffff82169050919050565b610bf381610bcf565b82525050565b610c0281610b71565b82525050565b5f73ffffffffffffffffffffffffffffffffffffffff82169050919050565b5f610c3182610c08565b9050919050565b610c4181610c27565b82525050565b5f8115159050919050565b610c5b81610c47565b82525050565b5f608082019050610c745f830187610bea565b610c816020830186610bf9565b610c8e6040830185610c38565b610c9b6060830184610c52565b95945050505050565b5f7fffffffffffffffffffffffffffffffffffffffffff000000000000000000000082169050919050565b610cd881610ca4565b82525050565b5f602082019050610cf15f830184610ccf565b92915050565b610d0081610bcf565b8114610d0a575f5ffd5b50565b5f81359050610d1b81610cf7565b92915050565b5f60208284031215610d3657610d35610b6d565b5b5f610d4384828501610d0d565b91505092915050565b610d5581610bcf565b82525050565b610d6481610b71565b82525050565b610d7381610c27565b82525050565b610d8281610c47565b82525050565b608082015f820151610d9c5f850182610d4c565b506020820151610daf6020850182610d5b565b506040820151610dc26040850182610d6a565b506060820151610dd56060850182610d79565b50505050565b5f608082019050610dee5f830184610d88565b92915050565b5f602082019050610e075f830184610bf9565b92915050565b5f81519050919050565b5f82825260208201905092915050565b5f819050602082019050919050565b608082015f820151610e4a5f850182610d4c565b506020820151610e5d6020850182610d5b565b506040820151610e706040850182610d6a565b506060820151610e836060850182610d79565b50505050565b5f610e948383610e36565b60808301905092915050565b5f602082019050919050565b5f610eb682610e0d565b610ec08185610e17565b9350610ecb83610e27565b805f5b83811015610efb578151610ee28882610e89565b9750610eed83610ea0565b925050600181019050610ece565b5085935050505092915050565b5f6020820190508181035f830152610f208184610eac565b905092915050565b610f3181610c27565b8114610f3b575f5ffd5b50565b5f81359050610f4c81610f28565b92915050565b5f60208284031215610f6757610f66610b6d565b5b5f610f7484828501610f3e565b91505092915050565b7f4e487b71000000000000000000000000000000000000000000000000000000005f52601160045260245ffd5b5f610fb482610b71565b9150610fbf83610b71565b9250828203905081811115610fd757610fd6610f7d565b5b92915050565b7f4e487b71000000000000000000000000000000000000000000000000000000005f52603260045260245ffd5b5f61101482610b71565b91507fffffffffffffffffffffffffffffffffffffffffffffffffffffffffffffffff820361104657611045610f7d565b5b600182019050919050565b7f4e487b71000000000000000000000000000000000000000000000000000000005f52604160045260245ffdfea264697066735822122096de2ef5a80c1b3eb5a04764dea68b0006ce6bbcb6ae45b82700023077ef4dae64736f6c634300081e0033","linkReferences":{}},"methodIdentifiers":{"getAuthorizedMessages()":"b2ccfb43","getLastMessage()":"526bf76e","getMessages()":"5ff6cbf3","getMessagesBySender(address)":"c6e4d923","messages(uint256)":"0d80fefd","numberOfAuthorizedMessages()":"531b26c2","numberOfMessages()":"fbda68e2","roflAppId()":"181031b1","submitMessage(uint128)":"33025c99"},"id":0}