{"abi":[{"type":"constructor","inputs":[{"name":"_roflAppId","type":"bytes21","internalType":"bytes21"}],"stateMutability":"nonpayable"},{"type":"function","name":"getAuthorizedMessages","inputs":[],"outputs":[{"name":"","type":"tuple[]","internalType":"struct Message[]","components":[{"name":"value","type":"uint128","internalType":"uint128"},{"name":"block","type":"uint256","internalType":"uint256"},{"name":"sender","type":"address","internalType":"address"},{"name":"isAuthorized","type":"bool","internalType":"bool"}]}],"stateMutability":"view"},{"type":"function","name":"getLastMessage","inputs":[],"outputs":[{"name":"","type":"tuple","internalType":"struct Message","components":[{"name":"value","type":"uint128","internalType":"uint128"},{"name":"block","type":"uint256","internalType":"uint256"},{"name":"sender","type":"address","internalType":"address"},{"name":"isAuthorized","type":"bool","internalType":"bool"}]}],"stateMutability":"view"},{"type":"function","name":"getMessages","inputs":[],"outputs":[{"name":"","type":"tuple[]","internalType":"struct Message[]","components":[{"name":"value","type":"uint128","internalType":"uint128"},{"name":"block","type":"uint256","internalType":"uint256"},{"name":"sender","type":"address","internalType":"address"},{"name":"isAuthorized","type":"bool","internalType":"bool"}]}],"stateMutability":"view"},{"type":"function","name":"getMessagesBySender","inputs":[{"name":"_sender","type":"address","internalType":"address"}],"outputs":[{"name":"","type":"tuple[]","internalType":"struct Message[]","components":[{"name":"value","type":"uint128","internalType":"uint128"},{"name":"block","type":"uint256","internalType":"uint256"},{"name":"sender","type":"address","internalType":"address"},{"name":"isAuthorized","type":"bool","internalType":"bool"}]}],"stateMutability":"view"},{"type":"function","name":"messages","inputs":[{"name":"","type":"uint256","internalType":"uint256"}],"outputs":[{"name":"value","type":"uint128","internalType":"uint128"},{"name":"block","type":"uint256","internalType":"uint256"},{"name":"sender","type":"address","internalType":"address"},{"name":"isAuthorized","type":"bool","internalType":"bool"}],"stateMutability":"view"},{"type":"function","name":"numberOfAuthorizedMessages","inputs":[],"outputs":[{"name":"","type":"uint256","internalType":"uint256"}],"stateMutability":"view"},{"type":"function","name":"numberOfMessages","inputs":[],"outputs":[{"name":"","type":"uint256","internalType":"uint256"}],"stateMutability":"view"},{"type":"function","name":"roflAppId","inputs":[],"outputs":[{"name":"","type":"bytes21","internalType":"bytes21"}],"stateMutability":"view"},{"type":"function","name":"submitMessage","inputs":[{"name":"_value","type":"uint128","internalType":"uint128"}],"outputs":[],"stateMutability":"nonpayable"}],"bytecode":{"object":"0x60806040523461002f576100196100146100e9565b610168565b610021610034565b61119e610175823961119e90f35b61003a565b60405190565b5f80fd5b601f801991011690565b634e487b7160e01b5f52604160045260245ffd5b906100669061003e565b810190811060018060401b0382111761007e57604052565b610048565b9061009661008f610034565b928361005c565b565b5f80fd5b60018060581b03191690565b6100b18161009c565b036100b857565b5f80fd5b905051906100c9826100a8565b565b906020828203126100e4576100e1915f016100bc565b90565b610098565b610107611313803803806100fc81610083565b9283398101906100cb565b90565b5f1b90565b9061012060018060a81b039161010a565b9181191691161790565b6101339061009c565b90565b60581c90565b61014590610136565b90565b9061015d6101586101649261012a565b61013c565b825461010f565b9055565b610172905f610148565b56fe60806040526004361015610013575b61076f565b61001d5f356100ac565b80630d80fefd146100a7578063181031b1146100a257806333025c991461009d578063526bf76e14610098578063531b26c2146100935780635ff6cbf31461008e578063b2ccfb4314610089578063c6e4d923146100845763fbda68e20361000e5761073a565b610705565b61068f565b61065a565b61054b565b610501565b61043d565b6103c2565b6102fd565b60e01c90565b60405190565b5f80fd5b5f80fd5b90565b6100cc816100c0565b036100d357565b5f80fd5b905035906100e4826100c3565b565b906020828203126100ff576100fc915f016100d7565b90565b6100bc565b634e487b7160e01b5f52603260045260245ffd5b5490565b5f5260205f2090565b61012e81610118565b8210156101485761014060039161011c565b910201905f90565b610104565b5f1c90565b6fffffffffffffffffffffffffffffffff1690565b6101736101789161014d565b610152565b90565b6101859054610167565b90565b90565b61019761019c9161014d565b610188565b90565b6101a9905461018b565b90565b60018060a01b031690565b6101c36101c89161014d565b6101ac565b90565b6101d590546101b7565b90565b60a01c90565b60ff1690565b6101f06101f5916101d8565b6101de565b90565b61020290546101e4565b90565b60019061021182610118565b8110156102565761022191610125565b509061022e5f830161017b565b9161023b6001820161019f565b91610253600261024c8185016101cb565b93016101f8565b90565b5f80fd5b6fffffffffffffffffffffffffffffffff1690565b6102789061025a565b9052565b610285906100c0565b9052565b60018060a01b031690565b61029d90610289565b90565b6102a990610294565b9052565b151590565b6102bb906102ad565b9052565b6102f46102fb946102ea6060949897956102e0608086019a5f87019061026f565b602085019061027c565b60408301906102a0565b01906102b2565b565b346103315761032d6103186103133660046100e6565b610205565b906103249492946100b2565b948594856102bf565b0390f35b6100b8565b5f91031261034057565b6100bc565b1c90565b60581b90565b61035890610349565b90565b61036b9060086103709302610345565b61034f565b90565b9061037e915461035b565b90565b61038c5f5f90610373565b90565b6affffffffffffffffffffff191690565b6103a99061038f565b9052565b91906103c0905f602085019401906103a0565b565b346103f2576103d2366004610336565b6103ee6103dd610381565b6103e56100b2565b918291826103ad565b0390f35b6100b8565b6104008161025a565b0361040757565b5f80fd5b90503590610418826103f7565b565b9060208282031261043357610430915f0161040b565b90565b6100bc565b5f0190565b3461046b5761045561045036600461041a565b610ac3565b61045d6100b2565b8061046781610438565b0390f35b6100b8565b6104799061025a565b9052565b610486906100c0565b9052565b61049390610294565b9052565b6104a0906102ad565b9052565b906060806104ea936104bc5f8201515f860190610470565b6104ce6020820151602086019061047d565b6104e06040820151604086019061048a565b0151910190610497565b565b91906104ff905f608085019401906104a4565b565b3461053157610511366004610336565b61052d61051c610caa565b6105246100b2565b918291826104ec565b0390f35b6100b8565b9190610549905f6020850194019061027c565b565b3461057b5761055b366004610336565b610577610566610d64565b61056e6100b2565b91829182610536565b0390f35b6100b8565b5190565b60209181520190565b60200190565b906060806105d9936105ab5f8201515f860190610470565b6105bd6020820151602086019061047d565b6105cf6040820151604086019061048a565b0151910190610497565b565b906105e881608093610593565b0190565b60200190565b9061060f61060961060284610580565b8093610584565b9261058d565b905f5b81811061061f5750505090565b90919261063861063260019286516105db565b946105ec565b9101919091610612565b6106579160208201915f8184039101526105f2565b90565b3461068a5761066a366004610336565b610686610675610e14565b61067d6100b2565b91829182610642565b0390f35b6100b8565b346106bf5761069f366004610336565b6106bb6106aa610eca565b6106b26100b2565b91829182610642565b0390f35b6100b8565b6106cd81610294565b036106d457565b5f80fd5b905035906106e5826106c4565b565b90602082820312610700576106fd915f016106d8565b90565b6100bc565b346107355761073161072061071b3660046106e7565b610ffb565b6107286100b2565b91829182610642565b0390f35b6100b8565b3461076a5761074a366004610336565b610766610755611152565b61075d6100b2565b91829182610536565b0390f35b6100b8565b5f80fd5b90565b601f801991011690565b634e487b7160e01b5f52604160045260245ffd5b9061079e90610776565b810190811067ffffffffffffffff8211176107b857604052565b610780565b906107d06107c96100b2565b9283610794565b565b6107dc60806107bd565b90565b906107e99061025a565b9052565b906107f7906100c0565b9052565b9061080590610294565b9052565b90610813906102ad565b9052565b5f5260205f2090565b5490565b61082d81610820565b8210156108475761083f600391610817565b910201905f90565b610104565b634e487b7160e01b5f525f60045260245ffd5b610869905161025a565b90565b5f1b90565b9061088c6fffffffffffffffffffffffffffffffff9161086c565b9181191691161790565b90565b6108ad6108a86108b29261025a565b610896565b61025a565b90565b90565b906108cd6108c86108d492610899565b6108b5565b8254610871565b9055565b6108e290516100c0565b90565b906108f15f199161086c565b9181191691161790565b61090f61090a610914926100c0565b610896565b6100c0565b90565b90565b9061092f61092a610936926108fb565b610917565b82546108e5565b9055565b6109449051610294565b90565b9061095860018060a01b039161086c565b9181191691161790565b61097661097161097b92610289565b610896565b610289565b90565b61098790610962565b90565b6109939061097e565b90565b90565b906109ae6109a96109b59261098a565b610996565b8254610947565b9055565b6109c390516102ad565b90565b60a01b90565b906109db60ff60a01b916109c6565b9181191691161790565b6109ee906102ad565b90565b90565b90610a09610a04610a10926109e5565b6109f1565b82546109cc565b9055565b90610a7060606002610a7694610a375f8201610a315f880161085f565b906108b8565b610a5060018201610a4a602088016108d8565b9061091a565b610a68828201610a626040880161093a565b90610999565b0192016109b9565b906109f4565b565b9190610a8957610a8791610a14565b565b61084c565b9081549168010000000000000000831015610abe5782610ab6916001610abc95018155610824565b90610a78565b565b610780565b610b1390610ad16001610773565b610b0e43610b0533610afc600193610af3610aea6107d2565b985f8a016107df565b602088016107ed565b604086016107fb565b60608401610809565b610a8e565b565b610b1f60806107bd565b90565b5f90565b5f90565b5f90565b5f90565b610b3a610b15565b90602080808085610b49610b22565b815201610b54610b26565b815201610b5f610b2a565b815201610b6a610b2e565b81525050565b610b78610b32565b90565b90565b610b92610b8d610b9792610b7b565b610896565b6100c0565b90565b610bae610ba9610bb392610b7b565b610896565b610289565b90565b610bbf90610b9a565b90565b610bd6610bd1610bdb92610b7b565b610896565b61025a565b90565b90565b610bf5610bf0610bfa92610bde565b610896565b6100c0565b90565b634e487b7160e01b5f52601160045260245ffd5b610c20610c26919392936100c0565b926100c0565b8203918211610c3157565b610bfd565b90610c9c610c936002610c47610b15565b94610c5e610c565f830161017b565b5f88016107df565b610c76610c6d6001830161019f565b602088016107ed565b610c8d610c848383016101cb565b604088016107fb565b016101f8565b60608401610809565b565b610ca790610c36565b90565b610cb2610b70565b50610cbd6001610118565b610ccf610cc95f610b7e565b916100c0565b14610d0857610d05610cff6001610cf9610ce96001610118565b610cf36001610be1565b90610c11565b90610125565b50610c9e565b90565b5f610d5d5f610d54610d195f610bb6565b610d4b610d425f94610d3d610d35610d2f6107d2565b99610bc2565b5f8a016107df565b610b7e565b602087016107ed565b604085016107fb565b60608301610809565b90565b5f90565b610d6c610d60565b50610d7d610d78610eca565b610580565b90565b606090565b67ffffffffffffffff8111610d9d5760208091020190565b610780565b90610db4610daf83610d85565b6107bd565b918252565b90610dc382610118565b610dcc81610da2565b92610dda602085019161011c565b5f915b838310610dea5750505050565b60036020600192610dfa85610c9e565b815201920192019190610ddd565b610e1190610db9565b90565b610e1c610d80565b50610e276001610e08565b90565b6001610e3691016100c0565b90565b610e42906100c0565b5f198114610e505760010190565b610bfd565b610e5d610b32565b90565b5f5b828110610e6e57505050565b602090610e79610e55565b8184015201610e62565b90610ea8610e9083610da2565b92602080610e9e8693610d85565b9201910390610e60565b565b90610eb482610580565b811015610ec5576020809102010190565b610104565b610ed2610d80565b50610edc5f610b7e565b610ee55f610b7e565b5b80610f02610efc610ef76001610118565b6100c0565b916100c0565b1015610f4857610f206002610f1960018490610125565b50016101f8565b610f33575b610f2e90610e2a565b610ee6565b90610f40610f2e91610e39565b919050610f25565b50610f5290610e83565b610f5b5f610b7e565b90610f655f610b7e565b5b80610f82610f7c610f776001610118565b6100c0565b916100c0565b1015610ff557610fa06002610f9960018490610125565b50016101f8565b610fb3575b610fae90610e2a565b610f66565b91610fed610fae91610fe6610fca60018790610125565b5085610fd68492610c9e565b610fe08383610eaa565b52610eaa565b5150610e39565b929050610fa5565b50905090565b611003610d80565b5061100d5f610b7e565b6110165f610b7e565b5b8061103361102d6110286001610118565b6100c0565b916100c0565b101561108c57611051600261104a60018490610125565b50016101cb565b61106361105d85610294565b91610294565b14611077575b61107290610e2a565b611017565b9061108461107291610e39565b919050611069565b5061109690610e83565b61109f5f610b7e565b6110a85f610b7e565b5b806110c56110bf6110ba6001610118565b6100c0565b916100c0565b101561114b576110e360026110dc60018490610125565b50016101cb565b6110f56110ef86610294565b91610294565b14611109575b61110490610e2a565b6110a9565b906111436111049161113c61112060018690610125565b508661112c8492610c9e565b6111368383610eaa565b52610eaa565b5150610e39565b9190506110fb565b5050905090565b61115a610d60565b506111656001610118565b9056fea26469706673582212208e6dc37b3fac40ad2f996563dc5808134d8d92af0ef1d05332f0dc062fa78de964736f6c634300081e0033","linkReferences":{}},"methodIdentifiers":{"getAuthorizedMessages()":"b2ccfb43","getLastMessage()":"526bf76e","getMessages()":"5ff6cbf3","getMessagesBySender(address)":"c6e4d923","messages(uint256)":"0d80fefd","numberOfAuthorizedMessages()":"531b26c2","numberOfMessages()":"fbda68e2","roflAppId()":"181031b1","submitMessage(uint128)":"33025c99"},"id":0}